{
  "contractName": "Coinflip",
  "abi": [
    {
      "inputs": [],
      "stateMutability": "nonpayable",
      "type": "constructor"
    },
    {
      "anonymous": false,
      "inputs": [
        {
          "indexed": false,
          "internalType": "string",
          "name": "description",
          "type": "string"
        }
      ],
      "name": "LogNewProvableQuery",
      "type": "event"
    },
    {
      "anonymous": false,
      "inputs": [
        {
          "indexed": false,
          "internalType": "address",
          "name": "user",
          "type": "address"
        },
        {
          "indexed": false,
          "internalType": "uint256",
          "name": "bet",
          "type": "uint256"
        },
        {
          "indexed": false,
          "internalType": "bool",
          "name": "gameWin",
          "type": "bool"
        }
      ],
      "name": "betPlaced",
      "type": "event"
    },
    {
      "anonymous": false,
      "inputs": [
        {
          "indexed": false,
          "internalType": "address",
          "name": "owner",
          "type": "address"
        },
        {
          "indexed": false,
          "internalType": "uint256",
          "name": "endowment",
          "type": "uint256"
        }
      ],
      "name": "contractFunded",
      "type": "event"
    },
    {
      "anonymous": false,
      "inputs": [
        {
          "indexed": false,
          "internalType": "uint256",
          "name": "randomNumber",
          "type": "uint256"
        }
      ],
      "name": "generatedRandomNumber",
      "type": "event"
    },
    {
      "inputs": [],
      "name": "contractBalance",
      "outputs": [
        {
          "internalType": "uint256",
          "name": "",
          "type": "uint256"
        }
      ],
      "stateMutability": "view",
      "type": "function",
      "constant": true
    },
    {
      "inputs": [],
      "name": "owner",
      "outputs": [
        {
          "internalType": "address",
          "name": "",
          "type": "address"
        }
      ],
      "stateMutability": "view",
      "type": "function",
      "constant": true
    },
    {
      "inputs": [
        {
          "internalType": "uint256",
          "name": "",
          "type": "uint256"
        }
      ],
      "name": "playerAccounts",
      "outputs": [
        {
          "internalType": "address",
          "name": "",
          "type": "address"
        }
      ],
      "stateMutability": "view",
      "type": "function",
      "constant": true
    },
    {
      "inputs": [],
      "name": "update",
      "outputs": [],
      "stateMutability": "nonpayable",
      "type": "function"
    },
    {
      "inputs": [
        {
          "internalType": "bytes32",
          "name": "_myid",
          "type": "bytes32"
        },
        {
          "internalType": "string",
          "name": "_result",
          "type": "string"
        }
      ],
      "name": "__callback",
      "outputs": [],
      "stateMutability": "nonpayable",
      "type": "function"
    },
    {
      "inputs": [
        {
          "internalType": "bytes32",
          "name": "_queryId",
          "type": "bytes32"
        },
        {
          "internalType": "string",
          "name": "_result",
          "type": "string"
        },
        {
          "internalType": "bytes",
          "name": "_proof",
          "type": "bytes"
        }
      ],
      "name": "__callback",
      "outputs": [],
      "stateMutability": "nonpayable",
      "type": "function"
    },
    {
      "inputs": [
        {
          "internalType": "address",
          "name": "playerAddress",
          "type": "address"
        }
      ],
      "name": "getPlayerSession",
      "outputs": [
        {
          "components": [
            {
              "internalType": "uint256",
              "name": "playerBet",
              "type": "uint256"
            },
            {
              "internalType": "uint256",
              "name": "playerBalance",
              "type": "uint256"
            },
            {
              "internalType": "bool",
              "name": "gameWin",
              "type": "bool"
            },
            {
              "internalType": "uint256",
              "name": "listIndex",
              "type": "uint256"
            }
          ],
          "internalType": "struct Coinflip.Session",
          "name": "",
          "type": "tuple"
        }
      ],
      "stateMutability": "view",
      "type": "function",
      "constant": true
    },
    {
      "inputs": [],
      "name": "getAccounts",
      "outputs": [
        {
          "internalType": "address[]",
          "name": "",
          "type": "address[]"
        }
      ],
      "stateMutability": "view",
      "type": "function",
      "constant": true
    },
    {
      "inputs": [],
      "name": "flipCoin",
      "outputs": [],
      "stateMutability": "payable",
      "type": "function",
      "payable": true
    },
    {
      "inputs": [],
      "name": "fundContract",
      "outputs": [],
      "stateMutability": "payable",
      "type": "function",
      "payable": true
    },
    {
      "inputs": [],
      "name": "close",
      "outputs": [],
      "stateMutability": "nonpayable",
      "type": "function"
    }
  ],
  "bytecode": "0x60806040523480156200001157600080fd5b50336000806101000a81548173ffffffffffffffffffffffffffffffffffffffff021916908373ffffffffffffffffffffffffffffffffffffffff16021790555062000067603060f81b6200006d60201b60201c565b62000b2d565b600073ffffffffffffffffffffffffffffffffffffffff16600260009054906101000a900473ffffffffffffffffffffffffffffffffffffffff1673ffffffffffffffffffffffffffffffffffffffff161480620000fd57506000620000fb600260009054906101000a900473ffffffffffffffffffffffffffffffffffffffff166200038d60201b60201c565b145b1562000117576200011560006200039860201b60201c565b505b600260009054906101000a900473ffffffffffffffffffffffffffffffffffffffff1673ffffffffffffffffffffffffffffffffffffffff166338cc48316040518163ffffffff1660e01b8152600401602060405180830381600087803b1580156200018257600080fd5b505af115801562000197573d6000803e3d6000fd5b505050506040513d601f19601f82011682018060405250810190620001bd919062000a59565b73ffffffffffffffffffffffffffffffffffffffff16600160009054906101000a900473ffffffffffffffffffffffffffffffffffffffff1673ffffffffffffffffffffffffffffffffffffffff1614620002f957600260009054906101000a900473ffffffffffffffffffffffffffffffffffffffff1673ffffffffffffffffffffffffffffffffffffffff166338cc48316040518163ffffffff1660e01b8152600401602060405180830381600087803b1580156200027d57600080fd5b505af115801562000292573d6000803e3d6000fd5b505050506040513d601f19601f82011682018060405250810190620002b8919062000a59565b600160006101000a81548173ffffffffffffffffffffffffffffffffffffffff021916908373ffffffffffffffffffffffffffffffffffffffff1602179055505b600160009054906101000a900473ffffffffffffffffffffffffffffffffffffffff1673ffffffffffffffffffffffffffffffffffffffff1663688dcfd7826040518263ffffffff1660e01b815260040162000356919062000a96565b600060405180830381600087803b1580156200037157600080fd5b505af115801562000386573d6000803e3d6000fd5b5050505050565b6000813b9050919050565b6000620003aa620003b160201b60201c565b9050919050565b600080620003d9731d3b2638a7cc9f2cb3d298a3da7a90b67e5506ed6200038d60201b60201c565b11156200048557731d3b2638a7cc9f2cb3d298a3da7a90b67e5506ed600260006101000a81548173ffffffffffffffffffffffffffffffffffffffff021916908373ffffffffffffffffffffffffffffffffffffffff1602179055506200047b6040518060400160405280600b81526020017f6574685f6d61696e6e65740000000000000000000000000000000000000000008152506200098060201b60201c565b600190506200097d565b6000620004ac73c03a2615d5efaf5f49f60b7bb6583eaec212fdf16200038d60201b60201c565b1115620005585773c03a2615d5efaf5f49f60b7bb6583eaec212fdf1600260006101000a81548173ffffffffffffffffffffffffffffffffffffffff021916908373ffffffffffffffffffffffffffffffffffffffff1602179055506200054e6040518060400160405280600c81526020017f6574685f726f707374656e3300000000000000000000000000000000000000008152506200098060201b60201c565b600190506200097d565b60006200057f73b7a07bcf2ba2f2703b24c0691b5278999c59ac7e6200038d60201b60201c565b11156200062b5773b7a07bcf2ba2f2703b24c0691b5278999c59ac7e600260006101000a81548173ffffffffffffffffffffffffffffffffffffffff021916908373ffffffffffffffffffffffffffffffffffffffff160217905550620006216040518060400160405280600981526020017f6574685f6b6f76616e00000000000000000000000000000000000000000000008152506200098060201b60201c565b600190506200097d565b60006200065273146500cfd35b22e4a392fe0adc06de1a1368ed486200038d60201b60201c565b1115620006fe5773146500cfd35b22e4a392fe0adc06de1a1368ed48600260006101000a81548173ffffffffffffffffffffffffffffffffffffffff021916908373ffffffffffffffffffffffffffffffffffffffff160217905550620006f46040518060400160405280600b81526020017f6574685f72696e6b6562790000000000000000000000000000000000000000008152506200098060201b60201c565b600190506200097d565b60006200072573a2998efd205fb9d4b4963afb70778d6354ad3a416200038d60201b60201c565b1115620007d15773a2998efd205fb9d4b4963afb70778d6354ad3a41600260006101000a81548173ffffffffffffffffffffffffffffffffffffffff021916908373ffffffffffffffffffffffffffffffffffffffff160217905550620007c76040518060400160405280600a81526020017f6574685f676f65726c69000000000000000000000000000000000000000000008152506200098060201b60201c565b600190506200097d565b6000620007f8736f485c8bf6fc43ea212e93bbf8ce046c7f1cb4756200038d60201b60201c565b11156200085e57736f485c8bf6fc43ea212e93bbf8ce046c7f1cb475600260006101000a81548173ffffffffffffffffffffffffffffffffffffffff021916908373ffffffffffffffffffffffffffffffffffffffff160217905550600190506200097d565b6000620008857320e12a1f859b3feae5fb2a0a32c18f5a65555bbf6200038d60201b60201c565b1115620008eb577320e12a1f859b3feae5fb2a0a32c18f5a65555bbf600260006101000a81548173ffffffffffffffffffffffffffffffffffffffff021916908373ffffffffffffffffffffffffffffffffffffffff160217905550600190506200097d565b6000620009127351efaf4c8b3c9afbd5ab9f4bbc82784ab6ef8faa6200038d60201b60201c565b111562000978577351efaf4c8b3c9afbd5ab9f4bbc82784ab6ef8faa600260006101000a81548173ffffffffffffffffffffffffffffffffffffffff021916908373ffffffffffffffffffffffffffffffffffffffff160217905550600190506200097d565b600090505b90565b8060039080519060200190620009989291906200099c565b5050565b828054600181600116156101000203166002900490600052602060002090601f016020900481019282601f10620009df57805160ff191683800117855562000a10565b8280016001018555821562000a10579182015b8281111562000a0f578251825591602001919060010190620009f2565b5b50905062000a1f919062000a23565b5090565b5b8082111562000a3e57600081600090555060010162000a24565b5090565b60008151905062000a538162000b13565b92915050565b60006020828403121562000a6c57600080fd5b600062000a7c8482850162000a42565b91505092915050565b62000a908162000ac7565b82525050565b600060208201905062000aad600083018462000a85565b92915050565b600062000ac08262000af3565b9050919050565b60007fff0000000000000000000000000000000000000000000000000000000000000082169050919050565b600073ffffffffffffffffffffffffffffffffffffffff82169050919050565b62000b1e8162000ab3565b811462000b2a57600080fd5b50565b6143b48062000b3d6000396000f3fe60806040526004361061009c5760003560e01c80638a48ac03116100645780638a48ac03146101515780638b7afe2e1461017c5780638da5cb5b146101a75780639d214bcf146101d2578063a2e620451461020f578063bd097e21146102265761009c565b806327dc297e146100a157806338bbfa50146100ca57806343d726d6146100f35780634d1cbac41461010a578063799ae22314610147575b600080fd5b3480156100ad57600080fd5b506100c860048036038101906100c39190613a06565b610230565b005b3480156100d657600080fd5b506100f160048036038101906100ec9190613a5a565b61028a565b005b3480156100ff57600080fd5b50610108610622565b005b34801561011657600080fd5b50610131600480360381019061012c919061398b565b6106b9565b60405161013e91906140c0565b60405180910390f35b61014f61074b565b005b34801561015d57600080fd5b50610166610833565b6040516101739190613fbb565b60405180910390f35b34801561018857600080fd5b506101916108c1565b60405161019e91906140db565b60405180910390f35b3480156101b357600080fd5b506101bc6108c7565b6040516101c99190613f40565b60405180910390f35b3480156101de57600080fd5b506101f960048036038101906101f49190613ad9565b6108eb565b6040516102069190613f40565b60405180910390f35b34801561021b57600080fd5b50610224610927565b005b61022e6109cc565b005b6102868282600067ffffffffffffffff8111801561024d57600080fd5b506040519080825280601f01601f1916602001820160405280156102805781602001600182028036833780820191505090505b5061028a565b5050565b610292610a7d565b73ffffffffffffffffffffffffffffffffffffffff163373ffffffffffffffffffffffffffffffffffffffff16146102c957600080fd5b60006102d6848484610d96565b60ff16146102e357600080fd5b60006002836040516020016102f89190613f01565b6040516020818303038152906040528051906020012060001c8161031857fe5b06905060006008600086815260200190815260200160002060009054906101000a900473ffffffffffffffffffffffffffffffffffffffff1690506000600760008373ffffffffffffffffffffffffffffffffffffffff1673ffffffffffffffffffffffffffffffffffffffff16815260200190815260200160002060000154905060008314156104ad57806006600082825403925050819055508173ffffffffffffffffffffffffffffffffffffffff166108fc600283029081150290604051600060405180830381858888f193505050501580156103fc573d6000803e3d6000fd5b5080600760008473ffffffffffffffffffffffffffffffffffffffff1673ffffffffffffffffffffffffffffffffffffffff168152602001908152602001600020600101600082825401925050819055506001600760008473ffffffffffffffffffffffffffffffffffffffff1673ffffffffffffffffffffffffffffffffffffffff16815260200190815260200160002060020160006101000a81548160ff021916908315150217905550610523565b600183141561052257806006600082825401925050819055506000600760008473ffffffffffffffffffffffffffffffffffffffff1673ffffffffffffffffffffffffffffffffffffffff16815260200190815260200160002060020160006101000a81548160ff0219169083151502179055505b5b6008600087815260200190815260200160002060006101000a81549073ffffffffffffffffffffffffffffffffffffffff02191690557fc13d60fe9dffdb6908d2d446cd18134373a51db0738ee04f296eeb9128121cbc8360405161058891906140db565b60405180910390a17f73bd43530b3f4bd380a12ac5b08dcbb30e92f8df9a9e3264c6a26222309ff9538282600760008673ffffffffffffffffffffffffffffffffffffffff1673ffffffffffffffffffffffffffffffffffffffff16815260200190815260200160002060020160009054906101000a900460ff1660405161061293929190613f84565b60405180910390a1505050505050565b60008054906101000a900473ffffffffffffffffffffffffffffffffffffffff1673ffffffffffffffffffffffffffffffffffffffff163373ffffffffffffffffffffffffffffffffffffffff161461067a57600080fd5b60008060009054906101000a900473ffffffffffffffffffffffffffffffffffffffff1690508073ffffffffffffffffffffffffffffffffffffffff16ff5b6106c161375d565b600760008373ffffffffffffffffffffffffffffffffffffffff1673ffffffffffffffffffffffffffffffffffffffff16815260200190815260200160002060405180608001604052908160008201548152602001600182015481526020016002820160009054906101000a900460ff161515151581526020016003820154815250509050919050565b662386f26fc1000080341015610796576040517f08c379a000000000000000000000000000000000000000000000000000000000815260040161078d90614060565b60405180910390fd5b3373ffffffffffffffffffffffffffffffffffffffff16314710156107f0576040517f08c379a00000000000000000000000000000000000000000000000000000000081526004016107e790614080565b60405180910390fd5b600015156107fd33610ec6565b1515141561081d5761080f3334610f8e565b50610818610927565b610830565b6108273334611038565b61082f610927565b5b50565b606060098054806020026020016040519081016040528092919081815260200182805480156108b757602002820191906000526020600020905b8160009054906101000a900473ffffffffffffffffffffffffffffffffffffffff1673ffffffffffffffffffffffffffffffffffffffff168152602001906001019080831161086d575b5050505050905090565b60065481565b60008054906101000a900473ffffffffffffffffffffffffffffffffffffffff1681565b600981815481106108f857fe5b906000526020600020016000915054906101000a900473ffffffffffffffffffffffffffffffffffffffff1681565b60008062030d409050600061093e83600184611083565b9050336008600083815260200190815260200160002060006101000a81548173ffffffffffffffffffffffffffffffffffffffff021916908373ffffffffffffffffffffffffffffffffffffffff1602179055507fc4dc360d0a9c0677a3379ae0a3d81e887f761e65fdf3d7e00859d1bcd3c473896040516109bf906140a0565b60405180910390a1505050565b60008054906101000a900473ffffffffffffffffffffffffffffffffffffffff1673ffffffffffffffffffffffffffffffffffffffff163373ffffffffffffffffffffffffffffffffffffffff1614610a2457600080fd5b6000341415610a3257600080fd5b346006600082825401925050819055507fff043843182fec3fbcbc695545b7652d340a2cf0919615adb04d98a00e7de8e23334604051610a73929190613f5b565b60405180910390a1565b60008073ffffffffffffffffffffffffffffffffffffffff16600260009054906101000a900473ffffffffffffffffffffffffffffffffffffffff1673ffffffffffffffffffffffffffffffffffffffff161480610b0557506000610b03600260009054906101000a900473ffffffffffffffffffffffffffffffffffffffff16611567565b145b15610b1657610b146000611572565b505b600260009054906101000a900473ffffffffffffffffffffffffffffffffffffffff1673ffffffffffffffffffffffffffffffffffffffff166338cc48316040518163ffffffff1660e01b8152600401602060405180830381600087803b158015610b8057600080fd5b505af1158015610b94573d6000803e3d6000fd5b505050506040513d601f19601f82011682018060405250810190610bb891906139b4565b73ffffffffffffffffffffffffffffffffffffffff16600160009054906101000a900473ffffffffffffffffffffffffffffffffffffffff1673ffffffffffffffffffffffffffffffffffffffff1614610cef57600260009054906101000a900473ffffffffffffffffffffffffffffffffffffffff1673ffffffffffffffffffffffffffffffffffffffff166338cc48316040518163ffffffff1660e01b8152600401602060405180830381600087803b158015610c7657600080fd5b505af1158015610c8a573d6000803e3d6000fd5b505050506040513d601f19601f82011682018060405250810190610cae91906139b4565b600160006101000a81548173ffffffffffffffffffffffffffffffffffffffff021916908373ffffffffffffffffffffffffffffffffffffffff1602179055505b600160009054906101000a900473ffffffffffffffffffffffffffffffffffffffff1673ffffffffffffffffffffffffffffffffffffffff1663c281d19e6040518163ffffffff1660e01b8152600401602060405180830381600087803b158015610d5957600080fd5b505af1158015610d6d573d6000803e3d6000fd5b505050506040513d601f19601f82011682018060405250810190610d9191906139b4565b905090565b60007f4c0000000000000000000000000000000000000000000000000000000000000082600081518110610dc657fe5b602001015160f81c60f81b7effffffffffffffffffffffffffffffffffffffffffffffffffffffffffffff1916141580610e5957507f500000000000000000000000000000000000000000000000000000000000000082600181518110610e2957fe5b602001015160f81c60f81b7effffffffffffffffffffffffffffffffffffffffffffffffffffffffffffff191614155b80610e855750600160ff1682600281518110610e7157fe5b602001015160f81c60f81b60f81c60ff1614155b15610e935760019050610ebf565b6000610ea8838686610ea3611583565b611625565b905080610eb9576002915050610ebf565b60009150505b9392505050565b6000806009805490501415610ede5760009050610f89565b8173ffffffffffffffffffffffffffffffffffffffff166009600760008573ffffffffffffffffffffffffffffffffffffffff1673ffffffffffffffffffffffffffffffffffffffff1681526020019081526020016000206003015481548110610f4457fe5b9060005260206000200160009054906101000a900473ffffffffffffffffffffffffffffffffffffffff1673ffffffffffffffffffffffffffffffffffffffff161490505b919050565b60006009839080600181540180825580915050600190039060005260206000200160009091909190916101000a81548173ffffffffffffffffffffffffffffffffffffffff021916908373ffffffffffffffffffffffffffffffffffffffff160217905550610ffb61375d565b82816000018181525050600160098054905003816060018181525050600081604001901515908115158152505061103181611b6a565b5092915050565b80600760008473ffffffffffffffffffffffffffffffffffffffff1673ffffffffffffffffffffffffffffffffffffffff168152602001908152602001600020600001819055505050565b60008083118015611095575060208311155b61109e57600080fd5b600a840293506060600167ffffffffffffffff811180156110be57600080fd5b506040519080825280601f01601f1916602001820160405280156110f15781602001600182028036833780820191505090505b5090508360f81b8160008151811061110557fe5b60200101907effffffffffffffffffffffffffffffffffffffffffffffffffffffffffffff1916908160001a9053506060602067ffffffffffffffff8111801561114e57600080fd5b506040519080825280601f01601f1916602001820160405280156111815781602001600182028036833780820191505090505b5090506060602067ffffffffffffffff8111801561119e57600080fd5b506040519080825280601f01601f1916602001820160405280156111d15781602001600182028036833780820191505090505b50905060006111de611bf4565b9050602083524241186001430340186020840152602082528060208301526060602067ffffffffffffffff8111801561121657600080fd5b506040519080825280601f01601f1916602001820160405280156112495781602001600182028036833780820191505090505b5090508860208201526060600867ffffffffffffffff8111801561126c57600080fd5b506040519080825280601f01601f19166020018201604052801561129f5781602001600182028036833780820191505090505b5090506112b28260186008846000611f0b565b506112bb613787565b604051806080016040528087815260200188815260200186815260200184815250905060006113206040518060400160405280600681526020017f72616e646f6d0000000000000000000000000000000000000000000000000000815250838c611f6a565b90506060600867ffffffffffffffff8111801561133c57600080fd5b506040519080825280601f01601f19166020018201604052801561136f5781602001600182028036833780820191505090505b50905060208401517f0100000000000000000000000000000000000000000000000000000000000000810460278301537e01000000000000000000000000000000000000000000000000000000000000810460268301537d010000000000000000000000000000000000000000000000000000000000810460258301537c0100000000000000000000000000000000000000000000000000000000810460248301537b01000000000000000000000000000000000000000000000000000000810460238301537a0100000000000000000000000000000000000000000000000000008104602283015379010000000000000000000000000000000000000000000000000081046021830153780100000000000000000000000000000000000000000000000081046020830153506115548282856001600481106114ae57fe5b60200201516002876000600481106114c257fe5b60200201516040516114d49190613e80565b602060405180830381855afa1580156114f1573d6000803e3d6000fd5b5050506040513d601f19601f8201168201806040525081019061151491906139dd565b8760026004811061152157fe5b60200201516040516020016115399493929190613ebf565b604051602081830303815290604052805190602001206122ea565b8199505050505050505050509392505050565b6000813b9050919050565b600061157c612306565b9050919050565b606060038054600181600116156101000203166002900480601f01602080910402602001604051908101604052809291908181526020018280546001816001161561010002031660029004801561161b5780601f106115f05761010080835404028352916020019161161b565b820191906000526020600020905b8154815290600101906020018083116115fe57829003601f168201915b5050505050905090565b600080602060028760458151811061163957fe5b602001015160f81c60f81b60f81c60ff16016044010190506060602067ffffffffffffffff8111801561166b57600080fd5b506040519080825280601f01601f19166020018201604052801561169e5781602001600182028036833780820191505090505b5090506116b087836020846000611f0b565b50600284876040516020016116c6929190613f18565b6040516020818303038152906040526040516116e29190613e80565b602060405180830381855afa1580156116ff573d6000803e3d6000fd5b5050506040513d601f19601f8201168201806040525081019061172291906139dd565b6040516020016117329190613e65565b6040516020818303038152906040528051906020012081805190602001201461176057600092505050611b62565b6060600288600160498601018151811061177657fe5b602001015160f81c60f81b60f81c60ff160167ffffffffffffffff8111801561179e57600080fd5b506040519080825280601f01601f1916602001820160405280156117d15781602001600182028036833780820191505090505b5090506117e688604985018351846000611f0b565b506118636002826040516117fa9190613e80565b602060405180830381855afa158015611817573d6000803e3d6000fd5b5050506040513d601f19601f8201168201806040525081019061183a91906139dd565b878a600860208801018151811061184d57fe5b602001015160f81c60f81b60f81c60ff1661285d565b6118735760009350505050611b62565b6060602967ffffffffffffffff8111801561188d57600080fd5b506040519080825280601f01601f1916602001820160405280156118c05781602001600182028036833780820191505090505b5090506118d589602086016029846000611f0b565b506060604067ffffffffffffffff811180156118f057600080fd5b506040519080825280601f01601f1916602001820160405280156119235781602001600182028036833780820191505090505b50905060006041845160296020890101010190506119498b604083036040856000611f0b565b50600060028360405161195c9190613e80565b602060405180830381855afa158015611979573d6000803e3d6000fd5b5050506040513d601f19601f8201168201806040525081019061199c91906139dd565b905083816040516020016119b1929190613e97565b60405160208183030381529060405280519060200120600460008d81526020019081526020016000205414156119fd57600460008c815260200190815260200160002060009055611a0d565b6000975050505050505050611b62565b6060604967ffffffffffffffff81118015611a2757600080fd5b506040519080825280601f01601f191660200182016040528015611a5a5781602001600182028036833780820191505090505b509050611a6c8d896049846000611f0b565b50611ac7600282604051611a809190613e80565b602060405180830381855afa158015611a9d573d6000803e3d6000fd5b5050506040513d601f19601f82011682018060405250810190611ac091906139dd565b878661290a565b611adc57600098505050505050505050611b62565b6005600083815260200190815260200160002060009054906101000a900460ff16611b3657611b0b8d84612af6565b6005600084815260200190815260200160002060006101000a81548160ff0219169083151502179055505b6005600083815260200190815260200160002060009054906101000a900460ff16985050505050505050505b949350505050565b600033905081600760008373ffffffffffffffffffffffffffffffffffffffff1673ffffffffffffffffffffffffffffffffffffffff168152602001908152602001600020600082015181600001556020820151816001015560408201518160020160006101000a81548160ff021916908315150217905550606082015181600301559050505050565b60008073ffffffffffffffffffffffffffffffffffffffff16600260009054906101000a900473ffffffffffffffffffffffffffffffffffffffff1673ffffffffffffffffffffffffffffffffffffffff161480611c7c57506000611c7a600260009054906101000a900473ffffffffffffffffffffffffffffffffffffffff16611567565b145b15611c8d57611c8b6000611572565b505b600260009054906101000a900473ffffffffffffffffffffffffffffffffffffffff1673ffffffffffffffffffffffffffffffffffffffff166338cc48316040518163ffffffff1660e01b8152600401602060405180830381600087803b158015611cf757600080fd5b505af1158015611d0b573d6000803e3d6000fd5b505050506040513d601f19601f82011682018060405250810190611d2f91906139b4565b73ffffffffffffffffffffffffffffffffffffffff16600160009054906101000a900473ffffffffffffffffffffffffffffffffffffffff1673ffffffffffffffffffffffffffffffffffffffff1614611e6657600260009054906101000a900473ffffffffffffffffffffffffffffffffffffffff1673ffffffffffffffffffffffffffffffffffffffff166338cc48316040518163ffffffff1660e01b8152600401602060405180830381600087803b158015611ded57600080fd5b505af1158015611e01573d6000803e3d6000fd5b505050506040513d601f19601f82011682018060405250810190611e2591906139b4565b600160006101000a81548173ffffffffffffffffffffffffffffffffffffffff021916908373ffffffffffffffffffffffffffffffffffffffff1602179055505b600160009054906101000a900473ffffffffffffffffffffffffffffffffffffffff1673ffffffffffffffffffffffffffffffffffffffff1663abaa5f3e6040518163ffffffff1660e01b815260040160206040518083038186803b158015611ece57600080fd5b505afa158015611ee2573d6000803e3d6000fd5b505050506040513d601f19601f82011682018060405250810190611f0691906139dd565b905090565b6060600082850190508084511015611f2257600080fd5b600086602001905060008460200190505b868860200101821015611f5b5781890151808288015250602082019150602081019050611f33565b85935050505095945050505050565b60008073ffffffffffffffffffffffffffffffffffffffff16600260009054906101000a900473ffffffffffffffffffffffffffffffffffffffff1673ffffffffffffffffffffffffffffffffffffffff161480611ff257506000611ff0600260009054906101000a900473ffffffffffffffffffffffffffffffffffffffff16611567565b145b15612003576120016000611572565b505b600260009054906101000a900473ffffffffffffffffffffffffffffffffffffffff1673ffffffffffffffffffffffffffffffffffffffff166338cc48316040518163ffffffff1660e01b8152600401602060405180830381600087803b15801561206d57600080fd5b505af1158015612081573d6000803e3d6000fd5b505050506040513d601f19601f820116820180604052508101906120a591906139b4565b73ffffffffffffffffffffffffffffffffffffffff16600160009054906101000a900473ffffffffffffffffffffffffffffffffffffffff1673ffffffffffffffffffffffffffffffffffffffff16146121dc57600260009054906101000a900473ffffffffffffffffffffffffffffffffffffffff1673ffffffffffffffffffffffffffffffffffffffff166338cc48316040518163ffffffff1660e01b8152600401602060405180830381600087803b15801561216357600080fd5b505af1158015612177573d6000803e3d6000fd5b505050506040513d601f19601f8201168201806040525081019061219b91906139b4565b600160006101000a81548173ffffffffffffffffffffffffffffffffffffffff021916908373ffffffffffffffffffffffffffffffffffffffff1602179055505b6060600467ffffffffffffffff811180156121f657600080fd5b5060405190808252806020026020018201604052801561222a57816020015b60608152602001906001900390816122155790505b5090508360006004811061223a57fe5b60200201518160008151811061224c57fe5b60200260200101819052508360016004811061226457fe5b60200201518160018151811061227657fe5b60200260200101819052508360026004811061228e57fe5b6020020151816002815181106122a057fe5b6020026020010181905250836003600481106122b857fe5b6020020151816003815181106122ca57fe5b60200260200101819052506122e0858285612ee6565b9150509392505050565b8060046000848152602001908152602001600020819055505050565b600080612326731d3b2638a7cc9f2cb3d298a3da7a90b67e5506ed611567565b11156123c857731d3b2638a7cc9f2cb3d298a3da7a90b67e5506ed600260006101000a81548173ffffffffffffffffffffffffffffffffffffffff021916908373ffffffffffffffffffffffffffffffffffffffff1602179055506123bf6040518060400160405280600b81526020017f6574685f6d61696e6e65740000000000000000000000000000000000000000008152506132f9565b6001905061285a565b60006123e773c03a2615d5efaf5f49f60b7bb6583eaec212fdf1611567565b11156124895773c03a2615d5efaf5f49f60b7bb6583eaec212fdf1600260006101000a81548173ffffffffffffffffffffffffffffffffffffffff021916908373ffffffffffffffffffffffffffffffffffffffff1602179055506124806040518060400160405280600c81526020017f6574685f726f707374656e3300000000000000000000000000000000000000008152506132f9565b6001905061285a565b60006124a873b7a07bcf2ba2f2703b24c0691b5278999c59ac7e611567565b111561254a5773b7a07bcf2ba2f2703b24c0691b5278999c59ac7e600260006101000a81548173ffffffffffffffffffffffffffffffffffffffff021916908373ffffffffffffffffffffffffffffffffffffffff1602179055506125416040518060400160405280600981526020017f6574685f6b6f76616e00000000000000000000000000000000000000000000008152506132f9565b6001905061285a565b600061256973146500cfd35b22e4a392fe0adc06de1a1368ed48611567565b111561260b5773146500cfd35b22e4a392fe0adc06de1a1368ed48600260006101000a81548173ffffffffffffffffffffffffffffffffffffffff021916908373ffffffffffffffffffffffffffffffffffffffff1602179055506126026040518060400160405280600b81526020017f6574685f72696e6b6562790000000000000000000000000000000000000000008152506132f9565b6001905061285a565b600061262a73a2998efd205fb9d4b4963afb70778d6354ad3a41611567565b11156126cc5773a2998efd205fb9d4b4963afb70778d6354ad3a41600260006101000a81548173ffffffffffffffffffffffffffffffffffffffff021916908373ffffffffffffffffffffffffffffffffffffffff1602179055506126c36040518060400160405280600a81526020017f6574685f676f65726c69000000000000000000000000000000000000000000008152506132f9565b6001905061285a565b60006126eb736f485c8bf6fc43ea212e93bbf8ce046c7f1cb475611567565b111561274f57736f485c8bf6fc43ea212e93bbf8ce046c7f1cb475600260006101000a81548173ffffffffffffffffffffffffffffffffffffffff021916908373ffffffffffffffffffffffffffffffffffffffff1602179055506001905061285a565b600061276e7320e12a1f859b3feae5fb2a0a32c18f5a65555bbf611567565b11156127d2577320e12a1f859b3feae5fb2a0a32c18f5a65555bbf600260006101000a81548173ffffffffffffffffffffffffffffffffffffffff021916908373ffffffffffffffffffffffffffffffffffffffff1602179055506001905061285a565b60006127f17351efaf4c8b3c9afbd5ab9f4bbc82784ab6ef8faa611567565b1115612855577351efaf4c8b3c9afbd5ab9f4bbc82784ab6ef8faa600260006101000a81548173ffffffffffffffffffffffffffffffffffffffff021916908373ffffffffffffffffffffffffffffffffffffffff1602179055506001905061285a565b600090505b90565b600080600190508284511461287157600080fd5b60005b838110156128fe5784818151811061288857fe5b602001015160f81c60f81b7effffffffffffffffffffffffffffffffffffffffffffffffffffffffffffff19168682602081106128c157fe5b1a60f81b7effffffffffffffffffffffffffffffffffffffffffffffffffffffffffffff1916146128f157600091505b8080600101915050612874565b50809150509392505050565b60008060008060006060602067ffffffffffffffff8111801561292c57600080fd5b506040519080825280601f01601f19166020018201604052801561295f5781602001600182028036833780820191505090505b509050600060208960038151811061297357fe5b602001015160f81c60f81b60f81c60ff1603600401905061299989826020856000611f0b565b91506060602067ffffffffffffffff811180156129b557600080fd5b506040519080825280601f01601f1916602001820160405280156129e85781602001600182028036833780820191505090505b509050602282019150612a248a60208c6001860381518110612a0657fe5b602001015160f81c60f81b60f81c60ff160384016020846000611f0b565b90506020830151945060208101519350612a418b601b8787613313565b80975081985050508573ffffffffffffffffffffffffffffffffffffffff16898051906020012060001c73ffffffffffffffffffffffffffffffffffffffff161415612a97576001975050505050505050612aef565b612aa48b601c8787613313565b80975081985050508573ffffffffffffffffffffffffffffffffffffffff16898051906020012060001c73ffffffffffffffffffffffffffffffffffffffff16149750505050505050505b9392505050565b60008060606002856001860181518110612b0c57fe5b602001015160f81c60f81b60f81c60ff160167ffffffffffffffff81118015612b3457600080fd5b506040519080825280601f01601f191660200182016040528015612b675781602001600182028036833780820191505090505b509050612b7985858351846000611f0b565b506060604067ffffffffffffffff81118015612b9457600080fd5b506040519080825280601f01601f191660200182016040528015612bc75781602001600182028036833780820191505090505b509050612bda8660046040846000611f0b565b506060606267ffffffffffffffff81118015612bf557600080fd5b506040519080825280601f01601f191660200182016040528015612c285781602001600182028036833780820191505090505b509050600160f81b81600081518110612c3d57fe5b60200101907effffffffffffffffffffffffffffffffffffffffffffffffffffffffffffff1916908160001a905350612c7e87604188036041846001611f0b565b5060606040518060400160405280602081526020017ffd94fa71bc0ba10d39d464d0d8f465efeef0a2764e3887fcc9df41ded20f505c8152509050612cc98160006020856042611f0b565b50612d24600283604051612cdd9190613e80565b602060405180830381855afa158015612cfa573d6000803e3d6000fd5b5050506040513d601f19601f82011682018060405250810190612d1d91906139dd565b858561290a565b945084612d3957600095505050505050612ee0565b606060405180606001604052806040815260200161433f6040913990506060604267ffffffffffffffff81118015612d7057600080fd5b506040519080825280601f01601f191660200182016040528015612da35781602001600182028036833780820191505090505b50905060fe60f81b81600081518110612db857fe5b60200101907effffffffffffffffffffffffffffffffffffffffffffffffffffffffffffff1916908160001a905350612df78a60036041846001611f0b565b50606060028b604581518110612e0957fe5b602001015160f81c60f81b60f81c60ff160167ffffffffffffffff81118015612e3157600080fd5b506040519080825280601f01601f191660200182016040528015612e645781602001600182028036833780820191505090505b509050612e778b60448351846000611f0b565b50612ed2600283604051612e8b9190613e80565b602060405180830381855afa158015612ea8573d6000803e3d6000fd5b5050506040513d601f19601f82011682018060405250810190612ecb91906139dd565b828561290a565b975087985050505050505050505b92915050565b60008073ffffffffffffffffffffffffffffffffffffffff16600260009054906101000a900473ffffffffffffffffffffffffffffffffffffffff1673ffffffffffffffffffffffffffffffffffffffff161480612f6e57506000612f6c600260009054906101000a900473ffffffffffffffffffffffffffffffffffffffff16611567565b145b15612f7f57612f7d6000611572565b505b600260009054906101000a900473ffffffffffffffffffffffffffffffffffffffff1673ffffffffffffffffffffffffffffffffffffffff166338cc48316040518163ffffffff1660e01b8152600401602060405180830381600087803b158015612fe957600080fd5b505af1158015612ffd573d6000803e3d6000fd5b505050506040513d601f19601f8201168201806040525081019061302191906139b4565b73ffffffffffffffffffffffffffffffffffffffff16600160009054906101000a900473ffffffffffffffffffffffffffffffffffffffff1673ffffffffffffffffffffffffffffffffffffffff161461315857600260009054906101000a900473ffffffffffffffffffffffffffffffffffffffff1673ffffffffffffffffffffffffffffffffffffffff166338cc48316040518163ffffffff1660e01b8152600401602060405180830381600087803b1580156130df57600080fd5b505af11580156130f3573d6000803e3d6000fd5b505050506040513d601f19601f8201168201806040525081019061311791906139b4565b600160006101000a81548173ffffffffffffffffffffffffffffffffffffffff021916908373ffffffffffffffffffffffffffffffffffffffff1602179055505b6000600160009054906101000a900473ffffffffffffffffffffffffffffffffffffffff1673ffffffffffffffffffffffffffffffffffffffff16632ef3accc86856040518363ffffffff1660e01b81526004016131b7929190614030565b602060405180830381600087803b1580156131d157600080fd5b505af11580156131e5573d6000803e3d6000fd5b505050506040513d601f19601f820116820180604052508101906132099190613b02565b9050823a02670de0b6b3a76400000181111561322b576000801b9150506132f2565b606061323685613357565b9050600160009054906101000a900473ffffffffffffffffffffffffffffffffffffffff1673ffffffffffffffffffffffffffffffffffffffff1663c55c1cb68360008985896040518663ffffffff1660e01b815260040161329b9493929190613fdd565b6020604051808303818588803b1580156132b457600080fd5b505af11580156132c8573d6000803e3d6000fd5b50505050506040513d601f19601f820116820180604052508101906132ed91906139dd565b925050505b9392505050565b806003908051906020019061330f9291906137ae565b5050565b60008060008060405188815287602082015286604082015285606082015260208160808360006001610bb8f192508051915050818193509350505094509492505050565b60606133616133d4565b61336961382e565b613375816104006133e0565b61337e8161342a565b60005b83518110156133bd576133b084828151811061339957fe5b60200260200101518361343890919063ffffffff16565b8080600101915050613381565b506133c78161345d565b8060000151915050919050565b60405180590338823950565b60008190506000602082816133f157fe5b061461340a576020818161340157fe5b06602003810190505b808360200181815250506040518084526000815281810160405250505050565b61343581600461346b565b50565b613445826002835161348c565b61345881836135cc90919063ffffffff16565b505050565b61346881600761346b565b50565b613488601f60058360ff16901b178361367790919063ffffffff16565b5050565b601781116134b8576134b38160058460ff16901b60ff16178461367790919063ffffffff16565b6135c7565b60ff81116134f9576134dd601860058460ff16901b178461367790919063ffffffff16565b6134f3816001856136b79092919063ffffffff16565b506135c6565b61ffff811161353b5761351f601960058460ff16901b178461367790919063ffffffff16565b613535816002856136b79092919063ffffffff16565b506135c5565b63ffffffff811161357f57613563601a60058460ff16901b178461367790919063ffffffff16565b613579816004856136b79092919063ffffffff16565b506135c4565b67ffffffffffffffff81116135c3576135ab601b60058460ff16901b178461367790919063ffffffff16565b6135c1816008856136b79092919063ffffffff16565b505b5b5b5b5b505050565b6135d461382e565b82602001518360000151518351011115613604576136038360026135fd8660200151865161371e565b0261373a565b5b60008060008451905085518051602081830101945086518101825260208701935050505b6020811061364b5781518352602083019250602082019150602081039050613628565b60006001826020036101000a039050801983511681855116818117865250508694505050505092915050565b8160200151600183600001515101111561369d5761369c82600284602001510261373a565b5b815180516020818301018381536001820183525050505050565b6136bf61382e565b8360200151846000015151830111156136ed576136ec8460026136e687602001518661371e565b0261373a565b5b60006001836101000a0390508451805184818301018684198251161781528582018352505050849150509392505050565b60008183111561373057829050613734565b8190505b92915050565b60608260000151905061374d83836133e0565b61375783826135cc565b50505050565b60405180608001604052806000815260200160008152602001600015158152602001600081525090565b60405180608001604052806004905b60608152602001906001900390816137965790505090565b828054600181600116156101000203166002900490600052602060002090601f016020900481019282601f106137ef57805160ff191683800117855561381d565b8280016001018555821561381d579182015b8281111561381c578251825591602001919060010190613801565b5b50905061382a9190613848565b5090565b604051806040016040528060608152602001600081525090565b5b80821115613861576000816000905550600101613849565b5090565b600081359050613874816142f9565b92915050565b600081519050613889816142f9565b92915050565b60008135905061389e81614310565b92915050565b6000815190506138b381614310565b92915050565b600082601f8301126138ca57600080fd5b81356138dd6138d882614123565b6140f6565b915080825260208301602083018583830111156138f957600080fd5b61390483828461429c565b50505092915050565b600082601f83011261391e57600080fd5b813561393161392c8261414f565b6140f6565b9150808252602083016020830185838301111561394d57600080fd5b61395883828461429c565b50505092915050565b60008135905061397081614327565b92915050565b60008151905061398581614327565b92915050565b60006020828403121561399d57600080fd5b60006139ab84828501613865565b91505092915050565b6000602082840312156139c657600080fd5b60006139d48482850161387a565b91505092915050565b6000602082840312156139ef57600080fd5b60006139fd848285016138a4565b91505092915050565b60008060408385031215613a1957600080fd5b6000613a278582860161388f565b925050602083013567ffffffffffffffff811115613a4457600080fd5b613a508582860161390d565b9150509250929050565b600080600060608486031215613a6f57600080fd5b6000613a7d8682870161388f565b935050602084013567ffffffffffffffff811115613a9a57600080fd5b613aa68682870161390d565b925050604084013567ffffffffffffffff811115613ac357600080fd5b613acf868287016138b9565b9150509250925092565b600060208284031215613aeb57600080fd5b6000613af984828501613961565b91505092915050565b600060208284031215613b1457600080fd5b6000613b2284828501613976565b91505092915050565b6000613b378383613b52565b60208301905092915050565b613b4c81614254565b82525050565b613b5b81614202565b82525050565b613b6a81614202565b82525050565b6000613b7b8261418b565b613b8581856141b9565b9350613b908361417b565b8060005b83811015613bc1578151613ba88882613b2b565b9750613bb3836141ac565b925050600181019050613b94565b5085935050505092915050565b613bd781614214565b82525050565b613be681614214565b82525050565b613bfd613bf882614220565b6142de565b82525050565b6000613c0e82614196565b613c1881856141ca565b9350613c288185602086016142ab565b613c31816142e8565b840191505092915050565b6000613c4782614196565b613c5181856141db565b9350613c618185602086016142ab565b80840191505092915050565b613c7681614266565b82525050565b6000613c87826141a1565b613c9181856141e6565b9350613ca18185602086016142ab565b613caa816142e8565b840191505092915050565b6000613cc0826141a1565b613cca81856141f7565b9350613cda8185602086016142ab565b80840191505092915050565b6000613cf3601c836141e6565b91507f546865206d696e696d756d20626574206973202e3031204574686572000000006000830152602082019050919050565b6000613d336040836141e6565b91507f436f6e74726163742062616c616e63652068617320696e73756666696369656e60008301527f742066756e64732e20506c656173652074727920616761696e206c617465722e6020830152604082019050919050565b6000613d996036836141e6565b91507f50726f7661626c65207175657279207761732073656e742c207374616e64696e60008301527f6720627920666f722074686520616e737765722e2e2e000000000000000000006020830152604082019050919050565b608082016000820151613e086000850182613e47565b506020820151613e1b6020850182613e47565b506040820151613e2e6040850182613bce565b506060820151613e416060850182613e47565b50505050565b613e508161424a565b82525050565b613e5f8161424a565b82525050565b6000613e718284613bec565b60208201915081905092915050565b6000613e8c8284613c3c565b915081905092915050565b6000613ea38285613c3c565b9150613eaf8284613bec565b6020820191508190509392505050565b6000613ecb8287613c3c565b9150613ed78286613c3c565b9150613ee38285613bec565b602082019150613ef38284613c3c565b915081905095945050505050565b6000613f0d8284613cb5565b915081905092915050565b6000613f248285613cb5565b9150613f308284613bec565b6020820191508190509392505050565b6000602082019050613f556000830184613b61565b92915050565b6000604082019050613f706000830185613b43565b613f7d6020830184613e56565b9392505050565b6000606082019050613f996000830186613b61565b613fa66020830185613e56565b613fb36040830184613bdd565b949350505050565b60006020820190508181036000830152613fd58184613b70565b905092915050565b6000608082019050613ff26000830187613c6d565b81810360208301526140048186613c7c565b905081810360408301526140188185613c03565b90506140276060830184613e56565b95945050505050565b6000604082019050818103600083015261404a8185613c7c565b90506140596020830184613e56565b9392505050565b6000602082019050818103600083015261407981613ce6565b9050919050565b6000602082019050818103600083015261409981613d26565b9050919050565b600060208201905081810360008301526140b981613d8c565b9050919050565b60006080820190506140d56000830184613df2565b92915050565b60006020820190506140f06000830184613e56565b92915050565b6000604051905081810181811067ffffffffffffffff8211171561411957600080fd5b8060405250919050565b600067ffffffffffffffff82111561413a57600080fd5b601f19601f8301169050602081019050919050565b600067ffffffffffffffff82111561416657600080fd5b601f19601f8301169050602081019050919050565b6000819050602082019050919050565b600081519050919050565b600081519050919050565b600081519050919050565b6000602082019050919050565b600082825260208201905092915050565b600082825260208201905092915050565b600081905092915050565b600082825260208201905092915050565b600081905092915050565b600061420d8261422a565b9050919050565b60008115159050919050565b6000819050919050565b600073ffffffffffffffffffffffffffffffffffffffff82169050919050565b6000819050919050565b600061425f82614278565b9050919050565b60006142718261424a565b9050919050565b60006142838261428a565b9050919050565b60006142958261422a565b9050919050565b82818337600083830152505050565b60005b838110156142c95780820151818401526020810190506142ae565b838111156142d8576000848401525b50505050565b6000819050919050565b6000601f19601f8301169050919050565b61430281614202565b811461430d57600080fd5b50565b61431981614220565b811461432457600080fd5b50565b6143308161424a565b811461433b57600080fd5b5056fe7fb956469c5c9b89840d55b43537e66a98dd4811ea0a27224272c2e5622911e8537a2f8e86a46baec82864e98dd01e9ccc2f8bc5dfc9cbe5a91a290498dd96e4a2646970667358221220f8d9d143c84c682fa147a72543b1215446e71d74d1a8d540fa6d5c12854901fe64736f6c634300060c0033",
  "immutableReferences": {},
  "source": "pragma solidity >0.6.1 <0.7.0;\r\npragma experimental ABIEncoderV2;\r\nimport \"./Ownable.sol\";\r\nimport \"./provableAPI_0.6.sol\";\r\n\r\ncontract Coinflip is Ownable, usingProvable {\r\n    //Provable Constants\r\n    uint256 constant NUM_RANDOM_BYTES_REQUESTED = 1;\r\n\r\n    //Variable Declarations\r\n    uint256 public contractBalance;\r\n    struct Session {\r\n        uint256 playerBet;\r\n        uint256 playerBalance;\r\n        bool gameWin;\r\n        uint256 listIndex;\r\n    }\r\n\r\n    mapping(address => Session) gameSessions;\r\n    mapping(bytes32 => address) queryOwners;\r\n    address[] public playerAccounts;\r\n\r\n    //Event definitions\r\n    event contractFunded(address owner, uint256 endowment);\r\n    event LogNewProvableQuery(string description);\r\n    event generatedRandomNumber(uint256 randomNumber);\r\n    event betPlaced(address user, uint256 bet, bool gameWin);\r\n\r\n    //Modifiers\r\n    modifier costs(uint256 cost) {\r\n        require(msg.value >= cost, \"The minimum bet is .01 Ether\");\r\n        _;\r\n    }\r\n\r\n    //Randomness Functions\r\n    constructor() public {\r\n        provable_setProof(proofType_Ledger);\r\n    }\r\n\r\n    function update() public {\r\n        uint256 QUERY_EXECUTION_DELAY = 0; // NOTE: The datasource currently does not support delays > 0!\r\n        uint256 GAS_FOR_CALLBACK = 200000;\r\n        bytes32 queryId =\r\n            provable_newRandomDSQuery(\r\n                QUERY_EXECUTION_DELAY,\r\n                NUM_RANDOM_BYTES_REQUESTED,\r\n                GAS_FOR_CALLBACK\r\n            );\r\n        queryOwners[queryId] = msg.sender;\r\n        emit LogNewProvableQuery(\r\n            \"Provable query was sent, standing by for the answer...\"\r\n        );\r\n    }\r\n\r\n    function __callback(\r\n        bytes32 _queryId,\r\n        string memory _result,\r\n        bytes memory _proof\r\n    ) public override {\r\n        require(msg.sender == provable_cbAddress());\r\n        if (\r\n            provable_randomDS_proofVerify__returnCode(\r\n                _queryId,\r\n                _result,\r\n                _proof\r\n            ) != 0\r\n        ) {\r\n            //proof verfication failure\r\n            revert();\r\n        } else {\r\n            //proof verfication success\r\n            uint256 randomNumber =\r\n                uint256(keccak256(abi.encodePacked(_result))) % 2;\r\n            address playerAddress = queryOwners[_queryId];\r\n            uint256 playerBet = gameSessions[playerAddress].playerBet;\r\n            if (randomNumber == 0) {\r\n                contractBalance -= playerBet;\r\n                payable(playerAddress).transfer(playerBet * 2);\r\n                gameSessions[playerAddress].playerBalance += playerBet;\r\n                gameSessions[playerAddress].gameWin = true;\r\n            } else if (randomNumber == 1) {\r\n                contractBalance += playerBet;\r\n                gameSessions[playerAddress].gameWin = false;\r\n            }\r\n            delete queryOwners[_queryId];\r\n            emit generatedRandomNumber(randomNumber);\r\n            emit betPlaced(\r\n                playerAddress,\r\n                playerBet,\r\n                gameSessions[playerAddress].gameWin\r\n            );\r\n        }\r\n    }\r\n\r\n    //Coinflip Contract Functions\r\n    function isAccount(address playerAddress) private view returns (bool) {\r\n        if (playerAccounts.length == 0) return false;\r\n        return (playerAccounts[gameSessions[playerAddress].listIndex] ==\r\n            playerAddress);\r\n    }\r\n\r\n    function getPlayerSession(address playerAddress)\r\n        public\r\n        view\r\n        returns (Session memory)\r\n    {\r\n        return gameSessions[playerAddress];\r\n    }\r\n\r\n    function createSession(address _playerAddress, uint256 _playerBet)\r\n        private\r\n        returns (bool)\r\n    {\r\n        //Create new session object with address, bet, and list index\r\n        //add session object to sessions mapping\r\n        //add player address to player list\r\n        playerAccounts.push(_playerAddress);\r\n        Session memory newSession;\r\n        newSession.playerBet = _playerBet;\r\n        newSession.listIndex = playerAccounts.length - 1;\r\n        newSession.gameWin = false;\r\n        insertSession(newSession);\r\n    }\r\n\r\n    function getAccounts() public view returns (address[] memory) {\r\n        return playerAccounts;\r\n    }\r\n\r\n    function updateSession(address _playerAddress, uint256 _playerBet) private {\r\n        gameSessions[_playerAddress].playerBet = _playerBet;\r\n    }\r\n\r\n    function insertSession(Session memory _newSession) private {\r\n        address creator = msg.sender;\r\n        gameSessions[creator] = _newSession;\r\n    }\r\n\r\n    function flipCoin() public payable costs(0.01 ether) {\r\n        require(\r\n            address(this).balance >= msg.sender.balance,\r\n            \"Contract balance has insufficient funds. Please try again later.\"\r\n        );\r\n\r\n        if (isAccount(msg.sender) == false) {\r\n            createSession(msg.sender, msg.value);\r\n            update();\r\n        } else {\r\n            updateSession(msg.sender, msg.value);\r\n            update();\r\n        }\r\n    }\r\n\r\n    function fundContract() public payable onlyOwner {\r\n        require(msg.value != 0);\r\n        contractBalance += msg.value;\r\n        emit contractFunded(msg.sender, msg.value);\r\n    }\r\n\r\n    function close() public onlyOwner {\r\n        address payable ownerPayable = payable(owner);\r\n        selfdestruct(ownerPayable);\r\n    }\r\n}\r\n",
  "sourcePath": "C:/Users/Matthew Watman/Desktop/Dev/IOTA/coinflip/contracts/Coinflip.sol",
  "compiler": {
    "name": "solc",
    "version": "0.6.12+commit.27d51765.Emscripten.clang"
  },
  "schemaVersion": "3.3.3",
  "updatedAt": "2021-01-30T19:29:00.418Z",
  "networkType": "ethereum",
  "devdoc": {
    "kind": "dev",
    "methods": {
      "__callback(bytes32,string)": {
        "details": "The following `__callback` functions are just placeholders ideally      meant to be defined in child contract when proofs are used.      The function bodies simply silence compiler warnings."
      }
    },
    "version": 1
  },
  "userdoc": {
    "kind": "user",
    "methods": {},
    "version": 1
  }
}